:020000040800F2
:1000000000000220B1CF0008B7BA0008BFBA00084C
:10001000C7BA0008CFBA0008D7BA0008000000002D
:10002000000000000000000000000000F194000843
:10003000DFBA000800000000AD940008DD9300085E
:1000400001D0000801D0000801D0000801D000084C
:1000500001D0000801D0000801D0000801D000083C
:1000600001D0000801D0000801D00008F1A200086A
:1000700001D0000801D0000801D0000801D000081C
:1000800001D0000801D0000801D0000801D000080C
:1000900001D0000801D0000801D0000801D00008FC
:1000A00001D0000801D0000801D0000801D00008EC
:1000B000EDBA000801D0000801D0000801D0000806
:1000C00001D0000801D0000801D0000801D00008CC
:1000D00001D0000801D0000801D0000801D00008BC
:1000E00001D0000801D0000801D0000801D00008AC
:1000F00001D0000801D0000801D0000801D000089C
:1001000001D0000801D0000801D0000801D000088B
:1001100001D0000801D0000801D0000801D000087B
:1001200001D0000801D0000801D0000801D000086B
:1001300001D0000801D0000801D0000801D000085B
:1001400001D0000801D0000801D0000801D000084B
:1001500001D0000801D0000801D0000801D000083B
:1001600001D0000801D0000801D0000801D000082B
:1001700001D0000801D0000801D0000801D000081B
:1001800001D0000801D0000801D0000801D000080B
:1001900001D000080000000001D0000801D00008D4
:1001A00001D0000801D0000801D00008DDA200083D
:1001B00001D0000801D0000801D0000801D00008DB
:1001C00001D0000801D0000801D0000801D00008CB
:0801D00001D0000801D0000875
:1001D80081F0004102E000BF83F0004330B54FEAF0
:1001E80041044FEA430594EA050F08BF90EA020F5D
:1001F8001FBF54EA000C55EA020C7FEA645C7FEAF0
:10020800655C00F0E2804FEA5454D4EB5555B8BF12
:100218006D420CDD2C4480EA020281EA030382EA83
:10022800000083EA010180EA020281EA0303362D15
:1002380088BF30BD11F0004F4FEA01314FF4801CE8
:100248004CEA113102D0404261EB410113F0004FFA
:100258004FEA03334CEA133302D0524263EB4303B1
:1002680094EA050F00F0A780A4F10104D5F1200E4F
:100278000DDB02FA0EFC22FA05F2801841F10001AA
:1002880003FA0EF2801843FA05F359410EE0A5F17E
:1002980020050EF1200E012A03FA0EFC28BF4CF0AF
:1002A800020C43FA05F3C01851EBE37101F0004565
:1002B80007D54FF0000EDCF1000C7EEB00006EEB72
:1002C8000101B1F5801F1BD3B1F5001F0CD34908FC
:1002D8005FEA30004FEA3C0C04F101044FEA445253
:1002E80012F5800F80F09A80BCF1004F08BF5FEADA
:1002F800500C50F1000041EB045141EA050130BDBA
:100308005FEA4C0C404141EB0101013C28BFB1F5CB
:10031800801FE9D291F0000F04BF01460020B1FA16
:1003280081F308BF2033A3F10B03B3F120020CDAE9
:100338000C3208DD02F1140CC2F10C0201FA0CF0C7
:1003480021FA02F10CE002F11402D8BFC2F1200C2C
:1003580001FA02F120FA0CFCDCBF41EA0C019040E2
:10036800E41AA2BF01EB0451294330BD6FEA04042B
:100378001F3C1CDA0C340EDC04F11404C4F1200216
:1003880020FA04F001FA02F340EA030021FA04F328
:1003980045EA030130BDC4F10C04C4F1200220FA7F
:1003A80002F001FA04F340EA0300294630BD21FABD
:1003B80004F0294630BD94F0000F83F4801306BF83
:1003C80081F480110134013D4EE77FEA645C18BF77
:1003D8007FEA655C29D094EA050F08BF90EA020F0E
:1003E80005D054EA000C04BF1946104630BD91EA06
:1003F800030F1EBF0021002030BD5FEA545C05D109
:100408004000494128BF41F0004130BD14F5800447
:100418003CBF01F5801130BD01F0004545F0FE41BB
:1004280041F470014FF0000030BD7FEA645C1ABFF0
:10043800194610467FEA655C1CBF0B46024650EA27
:10044800013406BF52EA033591EA030F41F4002153
:1004580030BD00BF90F0000F04BF0021704730B5D9
:100468004FF4806404F132044FF000054FF00001AE
:1004780050E700BF90F0000F04BF0021704730B56F
:100488004FF4806404F1320410F0004548BF404244
:100498004FF000013EE700BF42004FEAE2014FEA99
:1004A80031014FEA02701FBF12F07F4393F07F4F74
:1004B80081F06051704732F07F4208BF704793F077
:1004C8007F4F04BF41F40021704730B54FF460748A
:1004D80001F0004521F000411CE700BF50EA01028D
:1004E80008BF704730B54FF000050AE050EA010236
:1004F80008BF704730B511F0004502D5404261EBA6
:1005080041014FF4806404F132045FEA915C3FF4E6
:10051800D8AE4FF003025FEADC0C18BF03325FEA83
:10052800DC0C18BF033202EBDC02C2F1200300FA34
:1005380003FC20FA02F001FA03FE40EA0E0021FA59
:1005480002F11444BDE600BF70B54FF0FF0C4CF447
:10055800E06C1CEA11541DBF1CEA135594EA0C0FF9
:1005680095EA0C0F00F0DEF82C4481EA030621EA34
:100578004C5123EA4C5350EA013518BF52EA03356F
:1005880041F4801143F4801338D0A0FB02CE4FF021
:100598000005E1FB02E506F00042E0FB03E54FF051
:1005A8000006E1FB03569CF0000F18BF4EF0010E49
:1005B800A4F1FF04B6F5007F64F5407404D25FEA45
:1005C8004E0E6D4146EB060642EAC62141EA5551F8
:1005D8004FEAC52040EA5E504FEACE2EB4F1FD0C3A
:1005E80088BFBCF5E06F1ED8BEF1004F08BF5FEAB8
:1005F800500E50F1000041EB045170BD06F000466A
:1006080046EA010140EA020081EA0301B4EB5C0416
:10061800C2BFD4EB0C0541EA045170BD41F480110E
:100628004FF0000E013C00F3AB8014F1360FDEBF33
:10063800002001F0004170BDC4F10004203C35DA0F
:100648000C341BDC04F11404C4F1200500FA05F392
:1006580020FA04F001FA05F240EA020001F0004233
:1006680021F0004110EBD37021FA04F642EB0601A9
:100678005EEA430E08BF20EAD37070BDC4F10C04D3
:10068800C4F1200500FA04F320FA05F001FA04F297
:1006980040EA020001F0004110EBD37041F1000183
:1006A8005EEA430E08BF20EAD37070BDC4F120058E
:1006B80000FA05F24EEA020E20FA04F301FA05F2F6
:1006C80043EA020321FA04F001F0004121FA04F29E
:1006D80020EA020000EBD3705EEA430E08BF20EA6E
:1006E800D37070BD94F0000F0FD101F000464000A8
:1006F80041EB010111F4801F08BF013CF7D041EA2A
:10070800060195F0000F18BF704703F0004652002D
:1007180043EB030313F4801F08BF013DF7D043EAFE
:100728000603704794EA0C0F0CEA135518BF95EAB4
:100738000C0F0CD050EA410618BF52EA4306D1D13B
:1007480081EA030101F000414FF0000070BD50EA5A
:10075800410606BF1046194652EA430619D094EAE4
:100768000C0F02D150EA013613D195EA0C0F05D1CE
:1007780052EA03361CBF104619460AD181EA030122
:1007880001F0004141F0FE4141F470014FF00000DA
:1007980070BD41F0FE4141F4780170BD70B54FF075
:1007A800FF0C4CF4E06C1CEA11541DBF1CEA1355F5
:1007B80094EA0C0F95EA0C0F00F0A7F8A4EB0504D7
:1007C80081EA030E52EA03354FEA013100F08880CE
:1007D8004FEA03334FF0805545EA131343EA126397
:1007E8004FEA022245EA111545EA10654FEA00264C
:1007F8000EF000419D4208BF964244F1FD0404F505
:10080800407402D25B084FEA3202B61A65EB030560
:100818005B084FEA32024FF480104FF4002CB6EB1D
:10082800020E75EB030E22BFB61A754640EA0C009D
:100838005B084FEA3202B6EB020E75EB030E22BFDD
:10084800B61A754640EA5C005B084FEA3202B6EB1E
:10085800020E75EB030E22BFB61A754640EA9C00DD
:100868005B084FEA3202B6EB020E75EB030E22BFAD
:10087800B61A754640EADC0055EA060E18D04FEA6B
:10088800051545EA16754FEA06164FEAC30343EA0B
:1008980052734FEAC2025FEA1C1CC0D111F4801FD8
:1008A8000BD141EA00014FF000004FF0004CB6E7D1
:1008B80011F4801F04BF01430020B4F1FD0C88BF70
:1008C800BCF5E06F3FF6AFAEB5EB030C04BFB6EB7B
:1008D800020C5FEA500C50F1000041EB045170BD6E
:1008E8000EF0004E4EEA113114EB5C04C2BFD4EB9B
:1008F8000C0541EA045170BD41F480114FF0000E1F
:10090800013C90E645EA060E8DE60CEA135594EA9A
:100918000C0F08BF95EA0C0F3FF43BAF94EA0C0F9D
:100928000AD150EA01347FF434AF95EA0C0F7FF412
:1009380025AF104619462CE795EA0C0F06D152EA66
:1009480003353FF4FDAE1046194622E750EA41064A
:1009580018BF52EA43067FF4C5AE50EA41047FF45B
:100968000DAF52EA43057FF4EBAE12E74FF0FF3CC0
:1009780006E000BF4FF0010C02E000BF4FF0010C91
:100988004DF804CD4FEA410C7FEA6C5C4FEA430C0A
:1009980018BF7FEA6C5C1BD001B050EA410C0CBF59
:1009A80052EA430C91EA030F02BF90EA020F0020BB
:1009B800704710F1000F91EA030F58BF994208BF22
:1009C80090422CBFD8176FEAE37040F001007047DF
:1009D8004FEA410C7FEA6C5C02D150EA013C07D136
:1009E8004FEA430C7FEA6C5CD6D152EA033CD3D081
:1009F8005DF8040B704700BF8446104662468C467B
:100A08001946634600E000BF01B5FFF7B7FF0028AD
:100A180048BF10F1000F01BD4DF808EDFFF7F4FFD6
:100A28000CBF012000205DF808FB00BF4DF808ED61
:100A3800FFF7EAFF34BF012000205DF808FB00BF84
:100A48004DF808EDFFF7E0FF94BF012000205DF8A6
:100A580008FB00BF4DF808EDFFF7CEFF94BF01205B
:100A680000205DF808FB00BF4DF808EDFFF7C4FF54
:100A780034BF012000205DF808FB00BF4FEA410C9D
:100A88007FEA6C5C02D150EA013C0AD14FEA430C80
:100A98007FEA6C5C02D152EA033C02D14FF00000BD
:100AA80070474FF0010070474A0011D212F500124A
:100AB80011D20DD56FF47873B3EB62520ED44FEAAE
:100AC800C12343F0004343EA505323FA02F070472E
:100AD8004FF00000704750EA013002D14FF0FF306C
:100AE80070474FF00000704753B94AB9002908BF52
:100AF80000281CBF4FF0FF314FF0FF3000F00CB85A
:100B0800ADF1080C6DE904CE0DF022FBDDF804E030
:100B1800DDE9022304B07047704700BF0348044B67
:100B2800834202D0034B03B118477047EC00002002
:100B3800EC000020000000000548064B1B1AD90FE6
:100B480001EBA301491002D0034B03B118477047CA
:100B5800EC000020EC0000200000000010B5064C5E
:100B6800237843B9FFF7DAFF044B13B10448AFF316
:100B780000800123237010BDF00000200000000059
:100B880094E4000808B5054B1BB105490548AFF3C7
:100B98000080BDE80840FFF7CFBF00BF000000009D
:100BA800F400002094E4000880B485B000AF7860B9
:100BB80039600023FB7397F90F3018461437BD4688
:100BC8005DF8047B7047000080B584B000AF7860A2
:100BD80039600023FB727B68002B05D1374802F08F
:100BE80043FA4FF0FF3365E03B68002B05D13448EA
:100BF80002F03AFA4FF0FF335CE0324BD3E90001E0
:100C08004FF000024FF04043FFF706FF0346002B6A
:100C180006D03B68D3E900232A49C1E9002305E04F
:100C2800284BD3E900233968C1E90023254BD3E9D0
:100C380000014FF00002244BFFF7EEFE0346002BA5
:100C480002D0224802F010FA7B685B681B68204AD1
:100C580013607B685B685B681E4A13607B685B682F
:100C68009B681D4A13607B685B68DB681B4A1360DE
:100C78001B4B00221A6002F071FE0023FB60002368
:100C8800FB6007E0174AFB68174942F82310FB6826
:100C98000133FB60FB68012BF4D902F09FFA03468D
:100CA800FB7297F90B30002B02D1104B01221A70FE
:100CB80097F90B3018461037BD4680BDB0E40008E0
:100CC800D4E40008080000200000F0BF00E5000898
:100CD800AC050020B0050020B4050020B8050020B0
:100CE800BC0500200C010020CD390008A905002012
:100CF80080B586B000AF78600023FB7500233B61A8
:100D08000023FB732A4B1B78DBB2002B0CBF01239B
:100D18000023DBB2BB73274B02221A707B68002BBF
:100D28000BD1234B1B78DBB2002B06D1224B1B784F
:100D3800DBB2002B01D1012300E00023FB7316E096
:100D48000A2008F04DFA3B6903F51C5310333B6148
:100D58007B68B3F1FF3F05D03A697B689A4201D9B5
:100D6800012300E00023FB73002002F08FFA104BF0
:100D78001B78DBB2002B07D10F4B1B78DBB2002BA3
:100D880002D1FB7B002BDBD00A4B03221A70FB7BC2
:100D9800002B01D09C23FB75BB7B002B01D002F0FC
:100DA8000BFF97F9173018461837BD4680BD00BFAE
:100DB800A7050020A9050020A805002080B586B059
:100DC80000AF034687ED000BFB810023FB75012371
:100DD800BB754FF000024FF00003D7E90001FFF7A1
:100DE80025FE0346002B05D02E4802F03DF94FF0B2
:100DF800FF3353E0FB89FF2B08D9FB89FF221946F3
:100E0800294802F031F94FF0FF3347E0274B1B78B0
:100E1800DBB2032B04D0254B1B78DBB2012B02D1AC
:100E2800224B04221A70FB89012B15D8FB89204A12
:100E380052F82330002B0FD003F084FA03467B7559
:100E48007B7D022B08D1FB89194A52F82330FA8995
:100E5800104698470346BB75FB897B82FB89184679
:100E680097ED000B02F01CF9BB7D002B06D07B8AA6
:100E7800184603F03FFA0346FB7503E07B8A1846E1
:100E880003F09BFA97F91730002B05D097F9173024
:100E98001946084802F0E8F897F917301846183745
:100EA800BD4680BD6CE50008B0E50008A905002036
:100EB8000C010020F0E5000880B582B000AF0023E7
:100EC800FB71002002F0E2F90346FB7197F9073045
:100ED80018460837BD4680BD80B582B000AF0023F4
:100EE800FB710B4B06221A7002F06EFA0346FB7177
:100EF8000822002107480DF089FA02F0E3FD044BAF
:100F080000221A7097F9073018460837BD4680BD89
:100F1800A90500200C01002080B400AF034B1B780A
:100F2800DBB21846BD465DF8047B7047A805002073
:100F380080B400AF034B1B78DBB21846BD465DF8A2
:100F4800047B7047C005002080B483B000AF786090
:100F58007B681B6843F001027B681A6000BF0C378E
:100F6800BD465DF8047B704780B483B000AF7860FD
:100F78007B681B6823F001027B681A6000BF0C378E
:100F8800BD465DF8047B704780B483B000AF7860DD
:100F980039607B681B6823F004023B681A437B684E
:100FA8001A6000BF0C37BD465DF8047B704780B4FB
:100FB80083B000AF78607B681B6803F004031846B1
:100FC8000C37BD465DF8047B704780B483B000AF32
:100FD800786039607B683A681A6300BF0C37BD4691
:100FE8005DF8047B704780B483B000AF78607B689D
:100FF8005B6943F001027B685A6100BF0C37BD464C
:101008005DF8047B704780B483B000AF78607B687C
:101018001B6918460C37BD465DF8047B7047000015
:1010280080B485B000AF78607B681B689A68074B0E
:101038001340FB60FB68062B0CBF01230023DBB2C7
:1010480018461437BD465DF8047B70470700010059
:1010580080B584B000AF78600B46FB707B681B6876
:101068001846FFF7A4FFF860FB78002B23D07B68B5
:101078001B68374A934218D07B681B68354A9342ED
:1010880013D07B681B68344A93420ED07B681B6878
:10109800324A934209D07B681B68314A934204D094
:1010A8007B681B682F4A934205D17B681B68002127
:1010B8001846FFF78AFFFB68042B11D07B681B6872
:1010C80004211846FFF760FF7B681B681846FFF786
:1010D8008AFF7B681B68F9681846FFF755FF04E02C
:1010E8007B681B681846FFF77EFF7B681B681846FD
:1010F800FFF72AFFFB78002B25D07B681B68144A72
:10110800934218D07B681B68124A934213D07B68BD
:101118001B68114A93420ED07B681B680F4A9342A2
:1011280009D07B681B680E4A934204D07B681B6811
:101138000C4A934207D17B681A687B685B79194629
:101148001046FFF742FF00BF1037BD4680BD00BF05
:10115800002C01400034014000400140004401409F
:10116800004801400050014080B582B000AF78606F
:101178007B681B681846FFF7F7FE00BF0837BD46B7
:1011880080BD80B483B000AF78607B6800221A709D
:101198007B6801221A737B6801225A607B680122EE
:1011A8001A7200BF0C37BD465DF8047B704700001B
:1011B80080B584B000AF78600948FFF724FFF86075
:1011C800FB6803F40053002B14BF01230023DBB298
:1011D8001A467B681A7000BF1037BD4680BD00BF35
:1011E8000008004880B483B000AF78607B681B7843
:1011F800002B02D17B6801221A7000BF0C37BD4654
:101208005DF8047B704780B483B000AF78607B687A
:1012180001225A737B6801229A737B680122DA7370
:101228007B684FF0FF329A6000BF0C37BD465DF80F
:10123800047B704780B586B000AF87ED040B03468A
:10124800B9607A60FB737B684FF0FF329A60FB7B72
:10125800002B04D07968D7E90423C1E900237B680F
:10126800D3E90023D7E90401FEF7B6FF02460B468F
:10127800B968C1E9002300BF1837BD4680BD80B4F6
:1012880083B000AF78607B6801225A757B680122C1
:101298009A757B684FF0FF321A6100BF0C37BD4664
:1012A8005DF8047B7047000080B586B000AF87ED1D
:1012B800020B786039603B684FF0FF321A613B6877
:1012C800D3E90023D7E90201FEF786FF02460B4661
:1012D800C7E9042325A3D3E90023D7E90401FFF7CD
:1012E800C3FB0346002B0BD04FF000021E4BD7E97F
:1012F8000401FEF771FF02460B46C7E9042314E018
:1013080017A3D3E90023D7E90401FFF78FFB0346AE
:10131800002B0AD04FF00002134BD7E90401FEF767
:101328005DFF02460B46C7E904233B68D3E9020187
:10133800D7E90423FEF752FF02460B463968C1E994
:1013480002233B68D3E902237968C1E9002339689D
:10135800D7E90223C1E9002300BF1837BD4680BD85
:1013680000000000E0FFDDC00000EE4000000000CB
:10137800E0FFDD4080B5A6B000AF78607B68012251
:101388005A60204BBB6000233B7300237B7307F13B
:10139800080318460CF04EFC02467B68DA607B684E
:1013A800DB68002118460CF021F9022387F89730F2
:1013B8007B68DB6897F89720114618460CF0DAFA34
:1013C8007B68DB6897F89720114618460CF082FB7B
:1013D8007B68DB681846FFF723FE034687F89630DC
:1013E80097F89630002B05D17B68DB6800211846FA
:1013F800FFF72EFE7B6801221A7200BF9837BD46A0
:1014080080BD00BF0004004080B5A6B000AF786082
:101418007B6801225A60204BBB6000233B7300238A
:101428007B7307F1080318460CF004FC02467B683E
:10143800DA607B68DB68002118460CF0D7F80223D5
:1014480087F897307B68DB6897F89720114618462D
:101458000CF090FA7B68DB6897F8972011461846DD
:101468000CF038FB7B68DB681846FFF7D9FD0346AC
:1014780087F8963097F89630002B05D17B68DB68A3
:1014880000211846FFF7E4FD7B6801221A7200BFAD
:101498009837BD4680BD00BF0008004080B5A6B0A3
:1014A80000AF78607B6801225A60204BBB60002344
:1014B8003B7300237B7307F1080318460CF0BAFB53
:1014C80002467B68DA607B68DB68002118460CF00E
:1014D8008DF8022387F897307B68DB6897F89720A8
:1014E800114618460CF046FA7B68DB6897F8972097
:1014F800114618460CF0EEFA7B68DB681846FFF7D1
:101508008FFD034687F8963097F89630002B05D163
:101518007B68DB6800211846FFF79AFD7B6801228B
:101528001A7200BF9837BD4680BD00BF002C01402D
:10153800B0B58AB000AF944BDB6A00220021184690
:101548000CF018FC0346914AC2F880309048FFF727
:101558002FFE8E4BD3F880301846FEF77BFF0446EB
:101568000D468A4B93F8863039468A4A184645EC28
:10157800104BFFF75FFE97ED007B87498748B0EE79
:10158800470AF0EE670AFFF78FFE854BD3F84C3118
:10159800D3E90023C7E900237B4BD3E90C01D7E942
:1015A8000023FFF757FA0346002B11D0764BD3E9F7
:1015B8001001D7E90023FFF74DFA0346002B07D0A7
:1015C80072494FF000024FF00003C1E9002351E0D7
:1015D8006D4BD3E90C23C7E90223724B7B626A4B3C
:1015E800D3E90C01684BD3E91023FFF71FFA034630
:1015F800002B11D0644BD3E91001D7E90023FFF782
:1016080015FA0346002B18D05F4BD3E91023C7E91E
:101618000223654B7B6210E05B4BD3E90C01D7E9F1
:101628000023FFF717FA0346002B06D0564BD3E9E1
:101638001023C7E902235C4B7B62544BD3E91C019E
:101648007B6AD3E90023FEF7C7FD02460B46144622
:101658001D46D7E90001D7E90223FEF7BDFD024682
:101668000B4620462946FFF799F802460B4647499C
:10167800C1E90023444BD3E91401D7E90023FFF75C
:10168800E9F90346002B11D03F4BD3E91801D7E9FC
:101698000023FFF7DFF90346002B07D03B494FF043
:1016A80000024FF00003C1E9022351E0364BD3E9B1
:1016B8001423C7E902233D4B7B62334BD3E9140162
:1016C800314BD3E91823FFF7B1F90346002B11D0AA
:1016D8002D4BD3E91801D7E90023FFF7A7F90346F3
:1016E800002B18D0284BD3E91823C7E90223304B25
:1016F8007B6210E0244BD3E91401D7E90023FFF7FC
:10170800A9F90346002B06D01F4BD3E91823C7E9D4
:101718000223274B7B621D4BD3E900017B6AD3E987
:101728000023FEF759FD02460B4614461D46D7E92D
:101738000001D7E90223FEF74FFD02460B4620467B
:101748002946FFF72BF802460B461049C1E9022348
:101758000D4BD3E91C01D7E90023FFF77BF90346BA
:10176800002B27D0084BD3E92001D7E90023FFF746
:1017780071F90346002B1DD004494FF000024FF0C9
:101788000003C1E9042367E0A0010020180100203C
:101798009E010020B803002080030020880100205B
:1017A800F8030020D8010020E8010020F8010020FB
:1017B80008020020944BD3E91C23C7E90223934B6A
:1017C8007B62914BD3E91C018F4BD3E92023FFF7B0
:1017D8002DF90346002B11D08B4BD3E92001D7E913
:1017E8000023FFF723F90346002B18D0864BD3E9D3
:1017F8002023C7E90223864B7B6210E0824BD3E9A2
:101808001C01D7E90023FFF725F90346002B06D072
:101818007D4BD3E92023C7E902237D4B7B627D4BB7
:10182800D3E91C017B6AD3E90023FEF7D5FC024605
:101838000B4614461D46D7E90001D7E90223FEF7F7
:10184800CBFC02460B4620462946FEF7A7FF024678
:101858000B467049C1E904236B4BD3E92401D7E94E
:101868000023FFF7F7F80346002B11D0664BD3E9A6
:101878002801D7E90023FFF7EDF80346002B07D02E
:1018880064494FF000024FF00003C1E9062351E01C
:101898005D4BD3E92423C7E902235F4B7B625A4B94
:1018A800D3E92401584BD3E92823FFF7BFF80346AF
:1018B800002B11D0544BD3E92801D7E90023FFF7B7
:1018C800B5F80346002B18D04F4BD3E92823C7E9B6
:1018D8000223524B7B6210E04B4BD3E92401D7E93A
:1018E8000023FFF7B7F80346002B06D0464BD3E991
:1018F8002823C7E90223494B7B62464BD3E90401FD
:101908007B6AD3E90023FEF767FC02460B461446C0
:101918001D46D7E90001D7E90223FEF75DFC024620
:101928000B4620462946FEF739FF02460B46394941
:10193800C1E90623344BDB690022002118460CF06C
:1019480019FA0346334AD3673548FFF731FC314B60
:10195800DB6F1846FEF77EFD04460D462D4B93F8C7
:10196800853007F108012F4A184645EC104BFFF760
:1019780061FC97ED027B2C492C48B0EE470AF0EE4B
:10198800670AFFF791FC204BD3E92C01D7E9002324
:10199800FFF760F80346002B11D01B4BD3E9300149
:1019A800D7E90023FFF756F80346002B07D019495B
:1019B8004FF000024FF00003C1E908236AE0124B20
:1019C800D3E92C23C7E90223194B7B620E4BD3E9D9
:1019D8002C010D4BD3E93023FFF728F80346002BE1
:1019E8002AD0094BD3E93001D7E90023FFF71EF8C5
:1019F8000346002B31D0044BD3E93023C7E9022337
:101A08000C4B7B6229E000BFA001002018020020D7
:101A18002802002018010020380200204802002077
:101A28009D010020A80300206803002080010020F9
:101A38005802002068020020924BD3E92C01D7E914
:101A48000023FFF707F80346002B06D08D4BD3E998
:101A58003023C7E902238C4B7B628C4BD3E91A01F4
:101A68007B6AD3E90023FEF7B7FB02460B46144610
:101A78001D46D7E90001D7E90223FEF7ADFB024670
:101A88000B4620462946FEF789FE02460B467F494B
:101A9800C1E908237B4BD3E93401D7E90023FEF7DA
:101AA800D9FF0346002B11D0764BD3E93801D7E98B
:101AB8000023FEF7CFFF0346002B07D073494FF0F2
:101AC80000024FF00003C1E90A2351E06D4BD3E94E
:101AD8003423C7E902236E4B7B626A4BD3E9340196
:101AE800684BD3E93823FEF7A1FF0346002B11D03A
:101AF800644BD3E93801D7E90023FEF797FF034683
:101B0800002B18D05F4BD3E93823C7E90223614B78
:101B18007B6210E05B4BD3E93401D7E90023FEF781
:101B280099FF0346002B06D0564BD3E93823C7E963
:101B38000223584B7B62554BD3E908017B6AD3E9F2
:101B48000023FEF749FB02460B4614461D46D7E91B
:101B58000001D7E90223FEF73FFB02460B46204669
:101B68002946FEF71BFE02460B464849C1E90A23EF
:101B7800444BD3E93C01D7E90023FEF76BFF03464A
:101B8800002B11D03F4BD3E94001D7E90023FEF7E2
:101B980061FF0346002B07D03C494FF000024FF08D
:101BA8000003C1E90C2351E0364BD3E93C23C7E9D4
:101BB8000223394B7B62334BD3E93C01314BD3E9E8
:101BC8004023FEF733FF0346002B11D02D4BD3E9FA
:101BD8004001D7E90023FEF729FF0346002B18D060
:101BE800284BD3E94023C7E902232C4B7B6210E042
:101BF800244BD3E93C01D7E90023FEF72BFF03462A
:101C0800002B06D01F4BD3E94023C7E90223234BFF
:101C18007B621E4BD3E91A017B6AD3E90023FEF7E6
:101C2800DBFA02460B4614461D46D7E90001D7E900
:101C38000223FEF7D1FA02460B4620462946FEF754
:101C4800ADFD02460B461149C1E90C230D4BD3E902
:101C58004401D7E90023FEF7FDFE0346002B1FD001
:101C6800084BD3E94801D7E90023FEF7F3FE034602
:101C7800002B15D005494FF000024FF00003C1E9D1
:101C88000E235FE0A0010020680200201801002058
:101C9800780200208802002098020020A802002074
:101CA800944BD3E94423C7E90223934B7B62914BBE
:101CB800D3E944018F4BD3E94823FEF7B7FE034627
:101CC800002B11D08B4BD3E94801D7E90023FEF74D
:101CD800ADFE0346002B18D0864BD3E94823C7E94D
:101CE8000223864B7B6210E0824BD3E94401D7E99B
:101CF8000023FEF7AFFE0346002B06D07D4BD3E949
:101D08004823C7E902237D4B7B627D4BD3E90C0155
:101D18007B6AD3E90023FEF75FFA02460B461446B6
:101D28001D46D7E90001D7E90223FEF755FA024616
:101D38000B4620462946FEF731FD02460B46704900
:101D4800C1E90E236B4BDB680022002118460CF01A
:101D580011F803466A4A93676A48FFF729FA684BFD
:101D68009B6F1846FEF776FB04460D46644B93F8C6
:101D7800843007F10801644A184645EC104BFFF718
:101D880059FA97ED027B61496148B0EE470AF0EED7
:101D9800670AFFF789FA574BD3E94C01D7E90023C3
:101DA800FEF758FE0346002B11D0524BD3E95001E1
:101DB800D7E90023FEF74EFE0346002B07D0504913
:101DC8004FF000024FF00003C1E9102351E0494BE6
:101DD800D3E94C23C7E902234E4B7B62454BD3E939
:101DE8004C01444BD3E95023FEF720FE0346002B59
:101DF80011D0404BD3E95001D7E90023FEF716FE76
:101E08000346002B18D03B4BD3E95023C7E90223E4
:101E1800414B7B6210E0374BD3E94C01D7E90023F3
:101E2800FEF718FE0346002B06D0324BD3E95023A9
:101E3800C7E90223384B7B62314BD3E918017B6A2F
:101E4800D3E90023FEF7C8F902460B4614461D469F
:101E5800D7E90001D7E90223FEF7BEF902460B468F
:101E680020462946FEF79AFC02460B462449C1E95A
:101E78001023204BD3E95401D7E90023FEF7EAFDEC
:101E88000346002B11D01B4BD3E95801D7E9002397
:101E9800FEF7E0FD0346002B07D019494FF000027A
:101EA8004FF00003C1E912236AE0124BD3E954232F
:101EB800C7E90223194B7B620E4BD3E954010D4B42
:101EC800D3E95823FEF7B2FD0346002B2AD0094B6D
:101ED800D3E95801D7E90023FEF7A8FD0346002BF4
:101EE80031D0044BD3E95823C7E902230C4B7B625A
:101EF80029E000BFA0010020B8020020C80200208D
:101F0800180100209C0100209803002050030020A5
:101F180078010020D8020020E8020020F802002002
:101F2800080300208F4BD3E95401D7E90023FEF7BB
:101F380091FD0346002B06D08A4BD3E95823C7E905
:101F48000223894B7B62894BD3E910017B6AD3E971
:101F58000023FEF741F902460B4614461D46D7E911
:101F68000001D7E90223FEF737F902460B4620465F
:101F78002946FEF713FC02460B467C49C1E91223A9
:101F8800784BD3E95C01D7E90023FEF763FD0346EC
:101F9800002B11D0734BD3E96001D7E90023FEF77A
:101FA80059FD0346002B07D070494FF000024FF04F
:101FB8000003C1E9142351E06A4BD3E95C23C7E964
:101FC80002236B4B7B62674BD3E95C01654BD3E91A
:101FD8006023FEF72BFD0346002B11D0614BD3E99C
:101FE8006001D7E90023FEF721FD0346002B18D036
:101FF8005C4BD3E96023C7E902235E4B7B6210E0A8
:10200800584BD3E95C01D7E90023FEF723FD0346CB
:10201800002B06D0534BD3E96023C7E90223554B65
:102028007B62524BD3E918017B6AD3E90023FEF7A0
:10203800D3F802460B4614461D46D7E90001D7E9F6
:102048000223FEF7C9F802460B4620462946FEF74A
:10205800A5FB02460B464549C1E91423414BD3E988
:102068006401D7E90023FEF7F5FC0346002B11D0E5
:102078003C4BD3E96801D7E90023FEF7EBFC0346A4
:10208800002B07D039494FF000024FF00003C1E997
:10209800162351E0334BD3E96423C7E90223364BB7
:1020A8007B62304BD3E964012E4BD3E96823FEF7FA
:1020B800BDFC0346002B11D02A4BD3E96801D7E9B0
:1020C8000023FEF7B3FC0346002B18D0254BD3E9B9
:1020D8006823C7E90223294B7B6210E0214BD3E92F
:1020E8006401D7E90023FEF7B5FC0346002B06D0B0
:1020F8001C4BD3E96823C7E90223204B7B621B4BA7
:10210800D3E914017B6AD3E90023FEF765F8024698
:102118000B4614461D46D7E90001D7E90223FEF70E
:102128005BF802460B4620462946FEF737FB024677
:102138000B460E49C1E916230A4BD3E90C01104B93
:10214800D3E90023FEF768FC0346002B1ED00D4B95
:10215800D3F84C31D3E900230249C1E90C230A4BD7
:102168003B6249E0A001002008030020180100207C
:10217800180300202803002038030020480300200B
:1021880000000020F8030020D8010020854BD3E987
:102198001001854BD3E90023FEF73EFC0346002BD4
:1021A8000AD0824BD3F84C31D3E900237D49C1E9E9
:1021B80010237F4B3B621FE07A4BD3E90C01794B2C
:1021C800D3E91023FEF732FC0346002B0AD0774BE5
:1021D800D3F84C31D3E900237249C1E90C23754B7C
:1021E8003B6209E0714BD3F84C31D3E900236D49C8
:1021F800C1E910236E4B3B626F4BD3E91C23396A4C
:10220800C1E90023674BD3E91401674BD3E90023E5
:10221800FEF702FC0346002B0AD0644BD3F84C317E
:10222800D3E900235F49C1E91423644B3B6235E0DD
:102238005C4BD3E918015C4BD3E90023FEF7ECFBB8
:102248000346002B0AD0594BD3F84C31D3E900236D
:102258005449C1E918235A4B3B621FE0514BD3E95B
:102268001401504BD3E91823FEF7E0FB0346002B7B
:102278000AD04E4BD3F84C31D3E900234949C1E980
:1022880014234E4B3B6209E0484BD3F84C31D3E959
:1022980000234449C1E91823494B3B62464BD3E923
:1022A8000023396AC1E900233E4BD3E91C013E4BA8
:1022B800D3E90023FEF7B0FB0346002B0AD03B4BC3
:1022C800D3F84C31D3E900233649C1E91C233D4BEF
:1022D8003B6235E0334BD3E92001334BD3E900238C
:1022E800FEF79AFB0346002B0AD0304BD3F84C314B
:1022F800D3E900232B49C1E92023334B3B621FE07C
:10230800284BD3E91C01274BD3E92023FEF78EFB8A
:102318000346002B0AD0254BD3F84C31D3E90023D0
:102328002049C1E91C23274B3B6209E01F4BD3F826
:102338004C31D3E900231B49C1E92023224B3B62DE
:102348001D4BD3E91C23396AC1E90023154BD3E996
:102358002401154BD3E90023FEF75EFB0346002B4F
:102368000AD0124BD3F84C31D3E900230D49C1E907
:102378002423164B3B624DE00A4BD3E928010A4B54
:10238800D3E90023FEF748FB0346002B22D0074B76
:10239800D3F84C31D3E900230249C1E928230C4B77
:1023A8003B6237E0A001002000000020F803002075
:1023B800E8010020D801002018010020F8010020C1
:1023C80008020020180200202802002038020020FD
:1023D80048020020854BD3E92401844BD3E9282304
:1023E800FEF724FB0346002B0AD0814BD3F84C316F
:1023F800D3E900237D49C1E924237E4B3B6209E0F0
:102408007B4BD3F84C31D3E900237849C1E9282321
:10241800794B3B62794BD3E90423396AC1E900233C
:10242800724BD3E92C01764BD3E90023FEF7F4FA7B
:102438000346002B0AD06E4BD3F84C31D3E9002366
:102448006A49C1E92C236F4B3B6235E0674BD3E9FE
:1024580030016B4BD3E90023FEF7DEFA0346002B6D
:102468000AD0634BD3F84C31D3E900235F49C1E963
:102478003023654B3B621FE05C4BD3E92C015B4B7F
:10248800D3E93023FEF7D2FA0346002B0AD0584B83
:10249800D3F84C31D3E900235449C1E92C23594BD3
:1024A8003B6209E0524BD3F84C31D3E900234F4942
:1024B800C1E93023544B3B62504BD3E91A23396AA4
:1024C800C1E90023494BD3E934014D4BD3E900233B
:1024D800FEF7A2FA0346002B0AD0454BD3F84C313D
:1024E800D3E900234149C1E93423484B3B6235E035
:1024F8003E4BD3E93801424BD3E90023FEF78CFA6F
:102508000346002B0AD03A4BD3F84C31D3E90023C9
:102518003649C1E938233E4B3B621FE0334BD3E9D0
:102528003401324BD3E93823FEF780FA0346002BF7
:102538000AD02F4BD3F84C31D3E900232B49C1E9FA
:102548003423324B3B6209E0294BD3F84C31D3E9B1
:1025580000232649C1E938232D4B3B62274BD3E999
:102568000823396AC1E90023204BD3E93C01244BF5
:10257800D3E90023FEF750FA0346002B0AD01C4B80
:10258800D3F84C31D3E900231849C1E93C23214B46
:102598003B624DE0154BD3E94001194BD3E90023C9
:1025A800FEF73AFA0346002B0AD0114BD3F84C3108
:1025B800D3E900230D49C1E94023174B3B6237E0BB
:1025C8000A4BD3E93C01094BD3E94023FEF72EFA25
:1025D8000346002B22D0064BD3F84C31D3E9002315
:1025E8000249C1E93C230B4B3B6221E0A0010020DA
:1025F800F8030020380200204802002018010020BB
:102608000000002058020020680200207802002004
:102618008802002098020020A80200207A4BD3F8F4
:102628004C31D3E900237949C1E94023784B3B6217
:10263800784BD3E91A23396AC1E90023734BD3E9EC
:102648004401754BD3E90023FEF7E6F90346002B56
:102658000AD06D4BD3F84C31D3E900236B49C1E95B
:1026680044236E4B3B6235E0684BD3E948016A4B23
:10267800D3E90023FEF7D0F90346002B0AD0624BBA
:10268800D3F84C31D3E900236049C1E94823644BAE
:102698003B621FE05D4BD3E944015C4BD3E948231F
:1026A800FEF7C4F90346002B0AD0574BD3F84C3138
:1026B800D3E900235549C1E94423584B3B6209E05B
:1026C800514BD3F84C31D3E900235049C1E9482391
:1026D800534B3B624F4BD3E90C23396AC1E90023C2
:1026E8004A4BD3E94C014C4BD3E90023FEF794F94C
:1026F8000346002B0AD0444BD3F84C31D3E90023CE
:102708004249C1E94C23474B3B6235E03F4BD3E993
:102718005001414BD3E90023FEF77EF90346002B15
:102728000AD0394BD3F84C31D3E900233749C1E9F2
:1027380050233D4B3B621FE0344BD3E94C01334BF4
:10274800D3E95023FEF772F90346002B0AD02E4B2B
:10275800D3F84C31D3E900232C49C1E94C23314B40
:102768003B6209E0284BD3F84C31D3E900232749D1
:10277800C1E950232C4B3B62264BD3E91823396A15
:10278800C1E90023214BD3E95401234BD3E90023AA
:10279800FEF742F90346002B0AD01B4BD3F84C3105
:1027A800D3E900231949C1E95423204B3B624BE08C
:1027B800164BD3E95801184BD3E90023FEF72CF93F
:1027C8000346002B0AD0104BD3F84C31D3E9002331
:1027D8000E49C1E95823164B3B6235E00B4BD3E950
:1027E80054010A4BD3E95823FEF720F90346002B7E
:1027F80020D0054BD3F84C31D3E900230349C1E974
:1028080054230A4B3B621FE0F8030020A00100207C
:10281800A80200201801002000000020B8020020B3
:10282800C8020020D8020020E8020020F802002098
:1028380008030020784BD3F84C31D3E900237749BB
:10284800C1E95823764B3B62764BD3E91023396AAA
:10285800C1E90023714BD3E95C01734BD3E9002331
:10286800FEF7DAF80346002B0AD06B4BD3F84C314D
:10287800D3E900236949C1E95C236C4B3B6235E02D
:10288800664BD3E96001684BD3E90023FEF7C4F82F
:102898000346002B0AD0604BD3F84C31D3E9002310
:1028A8005E49C1E96023624B3B621FE05B4BD3E9A1
:1028B8005C015A4BD3E96023FEF7B8F80346002BB6
:1028C8000AD0554BD3F84C31D3E900235349C1E919
:1028D8005C23564B3B6209E04F4BD3F84C31D3E9AC
:1028E80000234E49C1E96023514B3B624D4BD3E96C
:1028F8001823396AC1E90023484BD3E964014A4BDC
:10290800D3E90023FEF788F80346002B0AD0424B90
:10291800D3F84C31D3E900234049C1E96423454B3E
:102928003B6235E03D4BD3E968013F4BD3E90023D7
:10293800FEF772F80346002B0AD0374BD3F84C3118
:10294800D3E900233549C1E968233B4B3B621FE0CB
:10295800324BD3E96401314BD3E96823FEF766F8BB
:102968000346002B0AD02C4BD3F84C31D3E9002373
:102978002A49C1E964232F4B3B6209E0264BD3F86F
:102988004C31D3E900232549C1E968232A4B3B622E
:10299800244BD3E91423396AC1E900230023FB77C8
:1029A8001D4BD3F838311846FDF754FD18A3D3E969
:1029B8000023FDF7C9FD02460B46C7E9042397ED3E
:1029C800040B0120FEF7FAF90346FB77124BD3F804
:1029D80028210132C3F82821D3F828311846FDF7F9
:1029E80039FD0D4BD3E94C230B4CD4F84C41FDF782
:1029F800ABFD02460B46C4E90023074BD3F8382148
:102A08000132C3F8382100BF2837BD46B0BD00BF2A
:102A18007B14AE47E17A843FF8030020A001002030
:102A280008030020180100200000002018030020DF
:102A3800280300203803002048030020000000007D
:102A480080B500AF8A4B8A4A03F5A473D360884BDC
:102A5800874A03F5A673C2F88430854B844A03F588
:102A680098739362824A824BC3F8D020804B804A85
:102A78009A607F4BDB6801221A707D4B002283F835
:102A8800FC207B4B002283F80C21794B794A5A6150
:102A9800774B774A03F5A873C2F84C3174494FF065
:102AA8000002754BC1E9502371496FA3D3E9002394
:102AB800C1E94C236E4B714AC3F810216C4B704A24
:102AC800C3F814216A4B6F4AC3F81821684B6E4A41
:102AD800C3F81C21664B6D4A5A606C4B6C4A1A60ED
:102AE8006B4B6C4A1A606A4B6A4A5A60684B694A6F
:102AF8009A60674B674ADA60654B664A1A61644BAD
:102B0800644A5A61624B634A9A61614B614ADA616D
:102B18005F4B604A1A625E4B5E4A5A625C4B5D4A82
:102B28009A625B4B5B4ADA62594B5A4A1A63504ABB
:102B38004F4B5B6802F590729A604D4A4C4B5B684C
:102B480002F588725A604A4A494B5B68D2F84C21B0
:102B5800DA60514BD3E900235049C1E90C234E4BAD
:102B6800D3E900234D49C1E910234B4BD3E9002396
:102B78004A49C1E91423484BD3E900234749C1E92D
:102B88001823454BD3E900234449C1E91C23424B90
:102B9800D3E900234149C1E920233F4BD3E900236E
:102BA8003E49C1E924233C4BD3E900233B49C1E911
:102BB8002823394BD3E900233849C1E92C23364B64
:102BC800D3E900233549C1E93023334BD3E9002346
:102BD8003249C1E93423304BD3E900232F49C1E9F5
:102BE80038232D4BD3E900232C49C1E93C232A4B38
:102BF800D3E900232949C1E94023274BD3E900231E
:102C08002649C1E94423244BD3E900232349C1E9D8
:102C18004823214BD3E900232049C1E94C231E4B0B
:102C2800D3E900231D49C1E950231B4BD3E90023F5
:102C38001A49C1E95423184BD3E900231749C1E9BC
:102C48005823154BD3E900231449C1E95C23124BDF
:102C5800D3E900231149C1E960230F4BD3E90023CD
:102C68001EE000BFAFF300807B14AE47E17A843FDB
:102C7800F80300206CE700080000F0BFE87E5CB5B0
:102C8800BD19E225215682B65B23E9C75805002005
:102C98006C050020500D010800000020A001002054
:102CA8002049C1E96423204BD3E900231D49C1E928
:102CB80068231E48FEF7A7FA1D48FEF7E0FA1D48EC
:102CC800FEF7A1FA1C48FEF7DAFA1C48FEF79BFA51
:102CD8001B48FEF7D4FA134B00225A62114B00220C
:102CE80083F820201748FEF745FB1748FEF749FAF6
:102CF8000C4B00225A610B4B00221A741348FEF742
:102D080083FB1348FEF73DFA064B00225A60054B39
:102D180000221A700348FEF7C1FB0E48FEF731FA8D
:102D280000BF80BDA001002000000020B8030020E3
:102D380080030020A80300206803002098030020D7
:102D480050030020C0010020E8030020B00100204B
:102D5800D8030020C803002080B582B000AF474BDD
:102D680093F82030002B27D1444B012283F82020F0
:102D7800424B5B6A012B1FD1404B93F82830002B44
:102D88001AD03E4BDB6A1846FEF7EEF93B4BDB6A7E
:102D9800002118460AF00CFD0223FB71374BDB6A51
:102DA800FA79114618460AF03DFE344BDB6AFA7987
:102DB800114618460AF0E6FE3148FEF713FA2F4B83
:102DC8001B7C002B25D12D4B01221A742B4B5B69E0
:102DD800012B1ED1294B1B7E002B1AD0274BDB69F8
:102DE8001846FEF7C1F9254BDB69002118460AF0A1
:102DF800DFFC0223FB71214BDB69FA791146184687
:102E08000AF010FE1D4BDB69FA79114618460AF0E4
:102E1800B9FE1C48FEF7E6F9184B1B78002B25D1A4
:102E2800164B01221A70154B5B68012B1ED1134BF0
:102E38001B7A002B1AD0114BDB681846FEF794F961
:102E48000E4BDB68002118460AF0B2FC0223FB7126
:102E58000A4BDB68FA79114618460AF0E3FD074B7E
:102E6800DB68FA79114618460AF08CFE0648FEF728
:102E7800B9F900BF0837BD4680BD00BFA0010020DA
:102E8800E8030020D8030020C803002080B500AF65
:102E98000F4B1B785A1CD1B20D4A1170002B09D068
:102EA8000C4B01221A600A4B1B78013BDAB2084B23
:102EB8001A700BE062B600BFFEF73AFB72B600BFAD
:102EC800034B1B78013BDAB2014B1A7080BD00BF7F
:102ED800A4050020A005002080B586B000AF78606A
:102EE80039605B4B7B615B4B3B610023FB735A4B47
:102EF80000221A70594B00221A7001DF09F0ECFD0C
:102F080008F0F0FA06F084F908F092FD08F0AAFD3E
:102F180008F040FB08F076FC08F0E0FB08F0FCFC49
:102F28004F4B1B6800221A6000210020FDF73CFE71
:102F38000346FB7397F90F30002B02D097F90F3037
:102F480081E0FFF77DFD72B600BF62B600BF444B5B
:102F58001B685A68424B1B6803F5A0731946104654
:102F6800FDF732FE0346FB7397F90F30002B0DD1A6
:102F78004FF0FF30FDF7BCFEFDF7CEFF0346002BF8
:102F880004D0374B1B68012283F8492172B600BF71
:102F980097ED050A06F02EFAFDF7CAFF0346002B47
:102FA8000CD1FDF7B9FF0346002B07D12C4B1B684A
:102FB80093F84931002B01D1012300E00023DAB254
:102FC800264B1A7062B600BF62B600BF2FE0FDF74D
:102FD80073FF0346FB73FDF7ABFF0346002B0AD1D3
:102FE800FDF79AFF0346002B05D11D4B1B6893F88C
:102FF8004931002B01D0012300E00023DAB2164B3F
:103008001A70154B1B78DBB2002B0CBF0123002371
:10301800DBB21A46114B1A700F4B1B78DBB2002B30
:1030280005D0104B1B680F4A23F0010313600B4BAC
:103038001B78DBB2002BCAD1FFF78EFEFDF74CFFE1
:1030480072B600BF002318461837BD4680BD00BFC2
:103058000AD7233C00002A43A5050020A605002026
:103068004C0D010810E000E00FB480B400AF00BFC1
:10307800BD465DF8047B04B0704780B485B000AFEE
:10308800F860B9607A60FB68BA681A60FB68043354
:103098007A681A6000BF1437BD465DF8047B704734
:1030A800F0B58BB000AF87ED020B0346FB80FB88C1
:1030B800012B77D14FF00002414BD7E90201FDF710
:1030C80043FA02460B46C7E906239FED391B97EDE5
:1030D800060B0AF081FE53EC102B10461946FDF73B
:1030E800E3FC03467B6100237B6233A3D3E900231F
:1030F800D7E90601FDF7B8FC0346002B0ED02EA336
:10310800D3E90023D7E90601FDF748FB02460B4641
:1031180010461946FDF7C8FC03467B627A6A79694E
:103128002848FFF7AAFF284BD3E900014FF0000217
:10313800264BFDF771FC0346002B2ED1224BD3E919
:1031480000014FF000024FF04043FDF765FC0346D5
:10315800002B22D11C4BD3E90001D7E90223FDF74C
:103168003BF802460B4614461D464FF00002184B2A
:10317800D7E90201FDF7E8F902460B4601210E46A0
:1031880020462946FDF752FC0346002B01D10023B7
:103198001E46F3B21A460F4B1A700F49D7E902239D
:1031A800C1E9002300BF2C37BD46F0BDAFF3008056
:1031B800000000000000F0410000E0FFFFFFEF41C9
:1031C80000408F40D8050020080000200000F0BF14
:1031D8000000B03CC0050020E005002080B584B0A8
:1031E80000AF0023BB6000237B600023FB732349EF
:1031F8004FF000024FF00003C1E9002320494FF0CF
:1032080000024FF00003C1E900233A1D07F108034B
:103218001146184605F0B6FFBB687A68114618468D
:1032280004F0D2F80346FB7397F90F30002B05D052
:103238001448FFF719FF97F90F301AE03A1D07F104
:1032480008031146184605F0B4FFBB687A681146B2
:10325800184600F053FF0346FB7397F90F30002B15
:1032680005D097F90F3019460748FFF7FDFE97F983
:103278000F3018461037BD4680BD00BFC805002076
:10328800D005002080E70008A8E7000880B584B0D2
:1032980000AF0346FB710023FB730023BB730020C0
:1032A80005F09EFF00237B7304F05CFA0346FB7372
:1032B80097F90F30002B0DD097F90F3013F1020F4B
:1032C80008D097F90F3019463C48FFF7CDFE012387
:1032D800BB730BE07B7B002B04D197F90F3013F104
:1032E800020F01D0012300E000237B73BB7B002B7E
:1032F80021D100F035FF0346FB7397F90F30002BFF
:103308000DD097F90F3013F1020F08D097F90F304D
:1033180019462B48FFF7A8FE0123BB730BE07B7B04
:10332800002B04D197F90F3013F1020F01D00123BC
:1033380000E000237B73BB7B002B21D104F09CF9B8
:103348000346FB7397F90F30002B0DD097F90F3018
:1033580013F1020F08D097F90F3019461948FFF7F3
:1033680083FE0123BB730BE07B7B002B04D197F911
:103378000F3013F1020F01D0012300E000237B730B
:10338800FB79002B0DD0002005F02AFFBB7B002B1A
:1033980002D17B7B002B01D1012300E00023BB730A
:1033A80001E00123BB73BB7B002B3FF47BAF97F994
:1033B8000F3018461037BD4680BD00BFD0E7000863
:1033C80008E8000838E8000880B582B000AF00239C
:1033D800BB70394B1B78DBB2002B02D0002000F009
:1033E800DDFF00F0AFFF0346FB7000237B600EE0BB
:1033F8000A2005F0F5FE7B6803F51C5310337B604B
:103408000120FFF743FF00F09DFF0346FB707B6838
:103418002A4A934202D2FB78002BE9D100F09EFFA2
:103428000346BB7097F90230002B05D097F902309C
:1034380019462348FFF718FE04F00EFB0346BB703D
:1034480097F90230002B05D097F9023019461D482C
:10345800FFF70AFE1C4B00221A701C4B00221A7040
:103468001B4B00221A601B4B00221A601A4B0022C9
:103478001A601A4B00221A60194B00221A60194967
:103488004FF000024FF04043C1E900230A4B0022ED
:103498001A700822002114480AF0B8FF13494FF0A7
:1034A80000024FF00003C1E9002397F902301846E3
:1034B8000837BD4680BD00BFC005002000879303C4
:1034C80070E800088CE80008A7050020A80500207F
:1034D800AC050020B0050020B4050020B805002088
:1034E800BC05002008000020D8050020E0050020C9
:1034F80080B586B000AF614B1B687B617B69002B90
:1035080000F0B8805E4B1B78DBB2002B04D15B4B1C
:103518001B68002B00F0AE805A4B1B78DBB2022BE5
:1035280040F0A880584B1B78002B40F0A3807B69A3
:10353800D3E90023C7E90223544B1B78002B00F082
:103548008A80534B1B78DBB2002B04D0504B1B787E
:10355800DBB2022B01D1012300E00023FB714C4BAD
:103568001B78DBB2012B04D0494B1B78DBB2022B52
:1035780001D1012300E00023BB71FB79002B33D07C
:10358800444BD3E90023D7E90201FDF763FA034668
:10359800002B0AD0404BD3E900013E4BD3E900236E
:1035A800FDF744FA0346002B14D13A4BD3E9002324
:1035B800D7E90201FDF758FA0346002B14D0364B21
:1035C800D3E90001334BD3E90023FDF725FA03467D
:1035D800002B09D0314B1B68002B02D1304B012244
:1035E8001A70294B01221A70BB79002B33D0294B52
:1035F800D3E90023D7E90201FDF718FA0346002BA7
:103608000AD0254BD3E90001224BD3E90023FDF76B
:1036180021FA0346002B14D11E4BD3E90023D7E926
:103628000201FDF7F9F90346002B14D01A4BD3E930
:103638000001184BD3E90023FDF716FA0346002BC7
:1036480009D0164B1B68002B02D1154B01221A70AA
:103658000D4B01221A700C4B1B78002B0CBF012359
:103668000023DBB21A46094B1A700B49D7E902232B
:10367800C1E9002300BF1837BD4680BDEC05002016
:10368800F00500200C0600201B060020180600206C
:1036980008060020F8050020100600200406002077
:1036A8001A06002080B582B000AF0023FB719E4B44
:1036B8001B78DBB2002B18D19C4B00221A709C4B54
:1036C80000221A709B4B1B78DBB2002B2DD0964B37
:1036D80002221A70974B00221A70974B1B78DBB2A4
:1036E800002B22D10123FB711FE0924B00221A709C
:1036F8008E4B1B78DBB2002B09D0904B00221A703E
:10370800894B00221A70894B00221A700DE08A4BEF
:103718001B78DBB2002B02D10123FB7105E0844B3F
:103728001B78FB71824B00221A707F4B1B78DBB22F
:10373800042B00F2D78001A252F823F05937000871
:10374800933800087337000847380008D137000855
:10375800784B1B78DBB2002B00F0D880724B02222A
:103768001A70744B00221A70D0E0FB79002B00F01D
:10377800CF80734B1B68002B0DDD6F4B1B78DBB2C2
:10378800012B08D16E4B1B681A466E4B1A60664BAC
:1037980003221A70BCE06C4B1B68002B0AD0674BE5
:1037A80001221A70684B1B68664A13605E4B04223C
:1037B8001A70ADE06548FFF757FC604B00221A709D
:1037C800594B00221A70A3E05E4B1B68002B04D0F3
:1037D8005C4B1B68013B5B4A13605A4B1B68002B10
:1037E80040F098805A4B1B78DBB2012B06D1534B23
:1037F80000221A704C4B00221A708BE0554B1B6844
:10380800002B0AD04D4B00221A70524B1B684D4AB0
:103818001360454B01221A707CE0FB79002B07D01E
:10382800494B1B68474A13603F4B04221A7071E0EA
:10383800424B00221A703C4B02221A706AE0414B3C
:103848001B68002B04D03F4B1B68013B3D4A1360AB
:103858003C4B1B68002B5FD13B4B1B68002B0AD0ED
:10386800364B01221A70384B1B68364A13602E4BB0
:1038780004221A7050E03548FFF7F6FB2F4B002260
:103888001A70294B00221A7046E02E4B1B68002B39
:1038980004D02C4B1B68013B2A4A1360294B1B6838
:1038A800002B3BD1FB79002B18D0274B1B68002B32
:1038B8000AD0224B01221A70234B1B68214A13603D
:1038C800194B04221A7029E02048FFF7CDFB1B4B47
:1038D80000221A70144B00221A701FE0124B0222A9
:1038E8001A701BE0104B1B78DBB219461A48FFF719
:1038F800BBFB124B00221A700D4B00221A700B4BA7
:1039080000221A70084B00221A7008E000BF06E077
:1039180000BF04E000BF02E000BF00E000BF00BF3E
:103928000837BD4680BD00BF0C06002009060020F0
:103938001B060020140000200A0600201A0600209A
:10394800040600201C06002010000020B0E8000833
:103958000B06002000060020D8E8000880B400AF5D
:1039680010494FF000024FF00003C1E900230E4B4D
:1039780000221A700D4B1B78DAB20D4B1A700D4BE2
:1039880000221A700C4B00221A700C4B00221A608D
:103998000B4B00221A7000231846BD465DF8047BC5
:1039A800704700BF10060020180600200A060020F5
:1039B800190600201A0600201B0600201C060020FD
:1039C8000C06002080B584B000AF0346FB80FB885E
:1039D800012B3FD1314B1B78DAB2314B1B789A421D
:1039E80014BF01230023DBB2FB732C4B1B78DAB224
:1039F8002B4B1A70FB7B002B0BD02A4B00221A7022
:103A0800294B00221A70294B00221A60284B0022E9
:103A18001A70224B1B78DBB2012B1BD1244B1B786D
:103A2800DBB2002B04D1234B1B78DBB2002B08D16F
:103A38001F4B1B78DBB2012B0CD11C4B1B68012BD5
:103A480008D11A4B00221A601A4B00221A70184B20
:103A580002221A70114B1B78DBB2012B07D1164BCF
:103A68001B889BB2FA889A4201D1FFF741FDFB8877
:103A7800012B05D1FFF716FE104B00221A7006E045
:103A88000E4B1B78002B02D00D4B1B7801E0054B29
:103A98001B7818461037BD4680BD00BF0A060020B7
:103AA800190600201A0600201B0600201C0600200C
:103AB8000C06002014000020E80500202106002044
:103AC8002006002080B400AF26494FF000024FF0D6
:103AD8000003C1E90023244B00221A70234B002263
:103AE8001A70234B00221A70224B00221A80224B94
:103AF80000221A70214B00221A70214B00221A60F2
:103B0800204B00221A70204B00221A701F4B0022F3
:103B18001A601F4B00221A701E494FF000024FF026
:103B28000003C1E900231C4B4FF47A721A601B4B47
:103B380000221A601A4B00221A601A4B00221A70CF
:103B4800194B01221A70194B00221A70184B0022C7
:103B58001A70184B00221A7000231846BD465DF8EB
:103B6800047B704710060020180600200C06002071
:103B780019060020E80500201A0600201B06002070
:103B88001C0600202006002021060020EC0500204D
:103B9800F0050020F8050020100000200006002095
:103BA8000406002008060020140000200906002052
:103BB8000A0600200B06002080B400AF174B1B78C4
:103BC800DBB2002B25D1164B1B78DBB2002B0BD0B8
:103BD800144B1B78DBB2002B06D1134B01221A7051
:103BE800124B01221A7014E00E4B1B78DBB2002B2B
:103BF8000BD00B4B1B78DBB2002B06D10A4B0022F3
:103C08001A700A4B01221A7003E0084B00221A703E
:103C1800FFE700BFBD465DF8047B70470A06002039
:103C2800140000200906002020060020210600209C
:103C380080B586B000AFF860B9607A603B60002359
:103C4800FB7503F0FDFE3861FB681B68184604F03D
:103C58000DF90021386803F06BFE0246BB681A6054
:103C680003F056FE02467B681A60BB681B68002B8F
:103C78000FD0BB681B681946386904F0FDFB024683
:103C8800FB681A60FB681B68002B04D1F623FB75E0
:103C980001E0F823FB7597F9173018461837BD4629
:103CA80080BD000080B584B000AFF860B9607A606C
:103CB800FA68BB6813441B7819460848FFF7D4F91B
:103CC800FB68002B02D0F86804F0D0F87B6800226B
:103CD8001A60002318461037BD4680BDFCE800086E
:103CE80080B584B000AFF860B9607A60FA68BB68E4
:103CF80013441B7819460648FFF7B6F97B68022279
:103D08001A604FF0FF3318461037BD4680BD00BF1C
:103D180058E9000880B485B000AF03460A46FB7135
:103D28001346BB710523FB73FB79F02B02D90023E3
:103D3800FB7322E0FB79E32B05D9FB79F02B02D842
:103D48000123FB7319E0FB79D22B02D9FB79E22B13
:103D580008D9FB79C02B08D1BB79002B05D0BB79DA
:103D6800022B02D80223FB7307E0FB79C72B04D987
:103D7800FB79D22B01D80323FB73FB7B184614373E
:103D8800BD465DF8047B704780B58CB000AFF86025
:103D9800B9607A603B60FB68BB62BB6A1B7887F8D6
:103DA8002730002387F82F3097F82730C02B06D10B
:103DB800BB68012B03D9BB6A5B7887F82F30364B79
:103DC8001B78002B3ED097F82F2097F82730114604
:103DD8001846FFF79FFF0346FB76002387F82E302F
:103DE800FB7E052B23D0FB7E2C4A52F823307B61C7
:103DF80000233B617B69002B19D097F827207B694A
:103E08001046984738613B69002B14BF01230023F3
:103E1800DBB287F82E3097F82E30002B07D03B699D
:103E28005A687B681A603B699A683B681A6097F819
:103E38002E30002B2CD17B68194A1A603B68194A2E
:103E48001A6025E097F82730FF2B1BD1134B1B680E
:103E58003B627B6800221A603B6800221A603B6A5A
:103E6800002B15D03B6AFF209847F861FB69002BAF
:103E78000ED0FB695A687B681A60FB699A683B68D0
:103E88001A6005E07B68084A1A603B6800221A60DD
:103E980000BF3037BD4680BD23060020280600201D
:103EA800E93C0008793F0008AD3C000880B483B0C5
:103EB80000AF0346FB71044AFB79137000BF0C374F
:103EC800BD465DF8047B70472306002080B400AF30
:103ED800034B1B781846BD465DF8047B704700BF4E
:103EE8002406002080B483B000AF0346FB71064B64
:103EF8001A78FB791343DAB2034B1A7000BF0C37F8
:103F0800BD465DF8047B70472406002080B483B06A
:103F180000AF0346FB7197F90730DB435AB2074BF2
:103F28001B785BB213405BB2DAB2044B1A7000BF65
:103F38000C37BD465DF8047B704700BF240600209F
:103F480080B400AF034B1B781846BD465DF8047B70
:103F5800704700BF2506002080B400AF034B1B88C4
:103F68001846BD465DF8047B704700BF2606002052
:103F780080B586B000AF0346B9607A60FB7397F9E5
:103F88000F30002B05D1BB683B613B69FF221A70DB
:103F980076E0BB687B617B69FE221A7097F90F3067
:103FA80010330F2B62D801A252F823F06D4000089D
:103FB800654000085D400008554000084D40000875
:103FC80045400008354000083D4000082D400008E5
:103FD800254000081D40000815400008FD3F000866
:103FE800F53F0008054000080D4000087B693022B5
:103FF8005A7045E07B6929225A7041E07B69222288
:104008005A703DE07B6920225A7039E07B690022B2
:104018005A7035E07B6923225A7031E07B6921228E
:104028005A702DE07B6911225A7029E07B6927229A
:104038005A7025E07B692A225A7021E07B69102298
:104048005A701DE07B6924225A7019E07B69282286
:104058005A7015E07B6926225A7011E07B6931227B
:104068005A700DE07B6933225A7009E097F90F30D6
:1040780019460548FEF7F8FF7B6920225A70FFE7CA
:1040880000BF1837BD4680BD88E9000880B487B0F6
:1040980000AF0346B9607A60FB7300237B61BB689D
:1040A800002B23D000233B6100233B6117E03A69D2
:1040B80013465B0013449B001A46BB6813441B78E5
:1040C800FA7B9A4208D13A6913465B0013449B0075
:1040D8001A46BB6813447B613B6901333B613A690B
:1040E8007B689A4202D27B69002BE0D07B69184634
:1040F8001C37BD465DF8047B7047000080B582B070
:1041080000AF78603960134B1B78002B05D012483C
:10411800FEF7AAFF6FF00B0318E000F07BFC00F03D
:1041280085FC03460D4A136002F052FA02F06CFA5D
:1041380003460A4A936003F045F803F04DF8034636
:10414800064A5360034B01221A70002318460837A9
:10415800BD4680BD22060020CCE9000828060020C4
:1041680080B58CB002AF002387F82730002387F88A
:1041780026300023FB610023BB6100237B61002301
:104188003B610023FB6000233B620023BB600023EC
:104198007B60554B1B78002B05D15448FEF764FF14
:1041A8006FF008039BE007F1140007F1180207F10C
:1041B8001C0107F1100300930346002003F012FBD3
:1041C800034687F8273097F92730002B09D097F94D
:1041D800273013F1040F04D097F9273013F1050F96
:1041E80071D1FB69002B05D07A693B691A44BB6918
:1041F8009A4203D9F82387F8273067E0FA697B6980
:1042080013443B6239693B1D07F10802386AFFF71E
:10421800BBFDBB68002B09D13B6A1B7819463448A3
:10422800FEF722FFF42387F827304FE0BB68F869D0
:10423800796907F10C029847034687F826307B68AE
:10424800002B3DD0FB68002B3AD0002387F827309D
:104258003A69FB689A420BD2FB6807F1140207F12E
:10426800180107F11C00FFF7E3FC034687F8273025
:104278003B691A460021386A0AF0C8F897F92730CE
:10428800002B1DD1FA697B6913443B627B68FA688D
:1042980097F92600396A9847F969B8697B69FA6815
:1042A8000192009303460A464FF6FF71012003F07E
:1042B80041F9034687F8273097F92730002B04D1B6
:1042C80097F927300BE000BF00E000BFFB69002B27
:1042D80003D0FB69184603F0C9FD97F92730184643
:1042E8002837BD4680BD00BF22060020FCE9000833
:1042F80024EA000880B584B000AF0346FB800023A1
:10430800FB730023BB600D4B1B78002B05D10C48B9
:10431800FEF7AAFE6FF008030CE004F0C9FFB860CE
:10432800FB880022B968184602F06CFB0346FB7351
:1043380097F90F3018461037BD4680BD2206002079
:1043480054EA000880B400AF034B1B781846BD46FA
:104358005DF8047B704700BF2306002080B500AFDE
:104368000B4B1B78002B02D10A48FEF77DFE02F0AA
:104378004FFF02F0F1FD00F075FB10220021064806
:104388000AF044F8024B00221A700023184680BD38
:10439800220600204CEB00082806002080B584B0D7
:1043A80000AF7860786802F0B1FB0346FB7397F9B9
:1043B8000F3018461037BD4680BD80B584B000AFB9
:1043C8000346FB800123FB73FA7BFB880021184618
:1043D80002F018FB0346BB7397F90E3018461037E6
:1043E800BD4680BD80B584B000AF0346FB71012394
:1043F800FB6003F0DCFAB860FA79B968FB68B1FBD6
:10440800F3F39A4234BF01230023DBB21846103776
:10441800BD4680BD80B584B000AF78600B46FB70A8
:1044280000F02AFBF860F9680648FEF71DFE064B07
:104438001B781A46F96878680AF01AF800BF10372E
:10444800BD4680BD74EB00084006002080B588B0EA
:1044580000AFF860B9607A600023FB77FA68BB6840
:104468001344BB61BB697B610023FB7402F0A6FCAB
:104478000346FB74FB7C002B08D11A48FEF7F4FDB9
:104488007B6802221A606FF00A0327E07B695B7879
:10449800002B03D07B695B78012B01D1012300E05D
:1044A8000023FB74FB7C002B0BD17B695B781946DE
:1044B8000D48FEF7D9FD7B6802221A606FF00103F0
:1044C8000CE00A48FEF7D0FD0120FFF7EFFC0023BF
:1044D800FB777B6808221A6097F91F301846203747
:1044E800BD4680BD8CEB0008D8EB0008FCEB00084B
:1044F80080B586B000AF0346B9607A60FB7397F960
:104508000F30002B47D1BB687B61082200217869F6
:1045180009F07CFF7B69FF221A7005227B695A70BB
:1045280000227B699A7003F042FA0346DAB27B698B
:10453800DA7003F035FA03469AB27B699A807B6990
:1045480001229A717B690122DA717B695B781946CD
:104558001648FEF789FD7B699B7819461448FEF7D3
:1045680083FD7B69DB7819461248FEF77DFD7B6980
:104578009B889BB219461048FEF776FD7B699B79AC
:1045880019460E48FEF770FD7B69DB7919460C4821
:10459800FEF76AFD06E097F90F307A68B9681846A1
:1045A800FFF7E6FC00BF1837BD4680BD24EC0008C5
:1045B80040EC00085CEC000878EC000894EC00087B
:1045C800B0EC000880B586B000AFF860B9607A60DA
:1045D8000123FB7502F0F2FB0346FB75FB7D002B04
:1045E80008D10B48FEF740FD7B6802221A606FF085
:1045F8000A0309E00748FEF737FD0020FFF756FCDD
:104608007B6801221A60002318461837BD4680BD12
:10461800CCEC00081CED000880B584B000AFF86051
:10462800B9607A600548FEF71FFD7B6806221A60AC
:10463800002318461037BD4680BD00BF4CED00086A
:1046480080B586B000AF0346B9607A60FB73BB687B
:104658007B6106220021786909F0D8FE7B69FF2278
:104668001A70FFF733FC03461A467B695A70FFF746
:1046780067FC03461A467B699A70FFF76DFC034690
:104688001A467B699A807B695B7819460948FEF768
:10469800EBFC7B699B7819460748FEF7E5FC7B69CC
:1046A8009B889BB219460548FEF7DEFC00BF183709
:1046B800BD4680BD58ED00087CED0008A0ED00085F
:1046C80080B586B000AFF860B9607A600023FB75EA
:1046D8000B48FEF7C9FC02F05BFB0346FB75FB7D4C
:1046E800002B03D003F08CF902F061FB7B680222F7
:1046F8001A606FF0040318461837BD4680BD00BF26
:10470800C4ED000880B588B000AFF860B9607A6081
:104718000023FB77FA68BB681344BB61BB697B6104
:104728000023FB747B695A687B69DB78194610465D
:1047380000F0AEF90346FB74FB7C002B08D10D4852
:10474800FEF792FC7B6802221A606FF00B030CE004
:104758007B6959687B69DB781A460748FEF784FC51
:104768007B6801221A6097F91F3018462037BD462A
:1047780080BD00BFCCED0008E8ED000880B58AB028
:1047880000AFF860B9607A60002387F82730FA68CC
:10479800BB6813443B623B6AFB610023FB7600F075
:1047A8006BF97861FB695B781846FFF71BFE0346D7
:1047B800FB76FB7E002B0BD1FB695B781946124810
:1047C800FEF752FC7B6802221A606FF0010316E0C4
:1047D8007B69002B08D10D48FEF746FC7B68022256
:1047E8001A606FF00B030AE0FB695A78084B1A70DD
:1047F800074B1B785A1C7B681A6097F927301846B4
:104808002837BD4680BD00BF1CEE00084CEE0008EE
:104818004006002080B588B000AF0346B9607A60D2
:10482800FB7397F90F30002B30D100F025F9F861B0
:10483800BB68BB6101220021B86909F0E7FDBB69CB
:10484800FF221A70FB69002B1CD0164B1B78013312
:104858007A689A4216D1BB6801337B610023FB74E6
:104868001148FEF701FCFB7C19467869FFF7D2FD79
:104878000C4B1B78184600F029F90A4B00221A70D5
:1048880000BF0AE00948FEF7EFFB06E097F90F3092
:104898007A68B9681846FFF76BFB00BF2037BD463A
:1048A80080BD00BF4006002068EE000874EE0008D6
:1048B80080B588B000AFF860B9607A600023FB77F4
:1048C800FA68BB681344BB61BB697B610023FB7456
:1048D8007B695B781846FFF785FD0346FB74FB7C14
:1048E800002B0BD17B695B7819461748FEF7BCFB98
:1048F8007B6802221A606FF0010320E07B695A6826
:104908007B69DB781946104600F0C2F80346FB7451
:10491800FB7C002B08D10D48FEF7A6FB7B68022222
:104928001A606FF00B030AE07B695A78084B1A701B
:10493800074B1B785A1C7B681A6097F91F3018467A
:104948002037BD4680BD00BF94EE0008C8EE0008C1
:104958004006002080B588B000AF0346B9607A6091
:10496800FB7397F90F30002B30D100F085F8F86110
:10497800BB68BB6101220021B86909F047FDBB692A
:10498800FF221A70FB69002B1CD0164B1B780133D1
:104998007A689A4216D1BB6801337B610023FB74A5
:1049A8001148FEF761FBFB7C19467869FFF732FD79
:1049B8000C4B1B78184600F089F80A4B00221A7035
:1049C80000BF0AE00948FEF74FFB06E097F90F30F1
:1049D8007A68B9681846FFF7CBFA00BF2037BD469A
:1049E80080BD00BF40060020E8EE0008F8EE000891
:1049F80080B582B000AF0346FB71FB7907220449FA
:104A08001846FFF743FB034618460837BD4680BDE6
:104A1800540D010880B500AF034800F013F800F00A
:104A280069F800BF80BD00BFF949000880B400AF35
:104A3800034B1B681846BD465DF8047B704700BFF2
:104A48004406002080B483B000AF7860044A7B68D5
:104A5800136000BF0C37BD465DF8047B704700BF8C
:104A68004406002080B500AF00F04BF80020FFF7A7
:104A7800E9FF00BF80BD000080B400AF034B1B6896
:104A88001846BD465DF8047B704700BF3806002015
:104A980080B483B000AF78600B46FB70FB78002BC6
:104AA80004D17B68002B01D1002306E0064A7B680D
:104AB8001360054AFB781371012318460C37BD466D
:104AC8005DF8047B704700BF3806002080B483B0CF
:104AD80000AF0346FB71064B1A68FB791344044A7E
:104AE800136000BF0C37BD465DF8047B704700BFFC
:104AF8003806002080B400AF00BFBD465DF8047BD7
:104B0800704780B400AF00BFBD465DF8047B7047B6
:104B180080B584B000AF0346FB800023FB7305F02B
:104B2800E8FE03460B4A13600B4B1B68002B0CBFB7
:104B380001230023DBB2FB73FB7B002B04D1054B65
:104B48001B68184605F0E6FEFB7B18461037BD4685
:104B580080BD00BF540600205006002080B582B0FA
:104B680000AF0346FB80044B1B68184605F0D2FED5
:104B780000BF0837BD4680BD5406002080B582B00E
:104B880000AF0346FB8005F0B4FE0346074A1360F6
:104B9800074B1B680133064A1360044B1B68184611
:104BA80005F0B8FE00BF0837BD4680BD540600209A
:104BB8005006002080B582B000AF0346FB8005F0A8
:104BC80098FE0346074A1360074B1B68013B064AD9
:104BD8001360044B1B68184605F09CFE00BF08379D
:104BE800BD4680BD540600205006002080B483B026
:104BF80000AF0346FB80104B1968FA8813465B0028
:104C08001344DB000B445B79022B0AD00A4B19686A
:104C1800FA8813465B001344DB000B445B79032BD3
:104C280001D1012300E00023DBB218460C37BD4652
:104C38005DF8047B704700BF4806002080B582B04D
:104C480000AF0023FB710023BB800023BB8008E07A
:104C5800BB881846FFF7CAFF0346FB71BB880133C0
:104C6800BB80094B9B88BA889A4202D2FB79002BF9
:104C7800EED0FB79002B0CBF01230023DBB21846D2
:104C88000837BD4680BD00BF4806002080B485B007
:104C980000AF0346FB800B467B7113463B71284BE4
:104CA8001B68002B42D0264B9B88FA889A423DD23B
:104CB800234B1968FA8813465B001344DB000B4446
:104CC8001B68002B32D01E4B1968FA8813465B000C
:104CD8001344DB000B441B797A799A4226D2184B8D
:104CE8001968FA8813465B001344DB000B44196803
:104CF8007A791346DB009B1A9B000B441B68002B38
:104D080014D00F4B1968FA8813465B001344DB0074
:104D18000B4419687A791346DB009B1A9B000B44F5
:104D28001B793A799A4201D2012300E00023FB73F0
:104D3800FB7B18461437BD465DF8047B704700BFFF
:104D48004806002080B485B000AF03463A60FB7186
:104D58000B46BB710023FB73BB79BB81FB79FF2B2F
:104D680004D1BB89FF2B01D80123FB73FB7B1846B9
:104D78001437BD465DF8047B704780B483B000AF3C
:104D88000346FB71FB7923F01003002B0CBF0123B2
:104D98000023DBB218460C37BD465DF8047B70472C
:104DA80080B485B000AF0346FB710023FB73FB7929
:104DB800002B05D0FB79012B02D0FB79022B01D106
:104DC8000123FB73FB7B18461437BD465DF8047B53
:104DD800704780B485B000AF0346FB710023FB73B6
:104DE800FB79002B05D0FB79012B02D0FB79022B34
:104DF80001D10123FB73FB7B18461437BD465DF8D0
:104E0800047B704780B400AF01231846BD465DF8A7
:104E1800047B704780B485B000AF0346FB80164B17
:104E28001968FA8813465B001344DB000B441B7BAC
:104E3800022B0ED1104B1968FA8813465B001344F5
:104E4800DB000B44DA880D4B1B889A4201D0012302
:104E580000E00023FB73FB7B002B04D0FB88002BB6
:104E680001D1012300E00023FB73FB7B18461437B4
:104E7800BD465DF8047B70474806002020000020EE
:104E880080B485B000AF78600B46FB707B6819680A
:104E9800FA781346DB009B1A9B000B44BB60BB6887
:104EA8009B687A68D28902FB03F30133FB60FB78C5
:104EB800002B08D17B681B7A03F01003002B02D06B
:104EC800FB680433FB60FB6818461437BD465DF881
:104ED800047B704780B586B000AF78600023BB7450
:104EE80000237B610023FB740023FB7415E0FB7C2B
:104EF80019467868FFF7C4FFF8600023BB600121FA
:104F0800F86802F015FDB860BA687B699A4201D961
:104F1800BB687B61FB7C0133FB747B681B79FA7C83
:104F28009A42E4D37B681B791A4613465B009918AA
:104F38007B6814331A46786903F050F80346BB744B
:104F480097F91230002B03D07B684FF0FF325A617B
:104F580097F9123018461837BD4680BD80B582B023
:104F680000AF78607B685B69B3F1FF3F04D07B6872
:104F78005B69184603F044F97B684FF0FF325A61C9
:104F880000BF0837BD4680BD80B58AB000AFF86065
:104F9800B9607A60002387F82730FA68BB68134441
:104FA8003B623B6AFB61FB699A78DB781B0213431F
:104FB8007B83FB691B797B76FB695B793B760023F6
:104FC800FB753A7E797E7B8B1846FFF75FFE0346BA
:104FD800FB75FB7D002B0BD1798B7A7E3B7E1D48C0
:104FE800FEF742F87B6802221A606FF001032CE09A
:104FF8007B8B1846FFF7FAFD0346002B0CBF0123F5
:105008000023DBB2FB75FB7D002B0AD17B8B194695
:105018001148FEF729F87B6802221A606FF007032F
:1050280013E0798B7A7E3B7E0C48FEF71DF80C4A1C
:105038007B8B13800A4A7B7E9370094A3B7ED37030
:105048007B6801221A6097F9273018462837BD4631
:1050580080BD00BF20EF000864EF000894EF00084F
:105068001C000020F0B58FB004AFF860B9607A601A
:10507800002387F82730FA68BB6813443B623B6A11
:10508800FB61584B1B887B83564B9B787B76554B33
:10509800DB783B7600237B610023FB743A7E797EC4
:1050A8007B8B1846FFF7F2FD0346FB74FB7C002B55
:1050B8000BD1798B7A7E3B7E4B48FDF7D5FF7B6819
:1050C80002221A606FF0050387E07B8B1846FFF712
:1050D8008DFD0346002B0CBF01230023DBB2FB74BC
:1050E800FB7C002B0AD17B8B19464048FDF7BCFF9F
:1050F8007B6802221A606FF007036EE0FB6958783C
:10510800FB699978FB695B681A46FFF71BFE034643
:10511800FB74FB7C002B1BD1798B7A7E387EFB6974
:105128005B781C46FB699B781D46FB69DB781E464D
:10513800FB695B68039302960195009403462C482B
:10514800FDF792FF7B6802221A606FF0010344E0CA
:10515800798B7A7E387EFB695B781C46FB699B7885
:105168001D46FB69DB781E46FB695B680393029664
:105178000195009403461F48FDF776FF1E4B1968FA
:105188007A8B13465B001344DB000B4419687A7E64
:105198001346DB009B1A9B000B441A683B7EDB001E
:1051A80013447B61FB695A787B691A70FB699A78AA
:1051B8007B695A70FB69DA787B699A70FB695A686F
:1051C8007B695A60074BDB780133DAB2054BDA703A
:1051D8007B6801221A6097F9273018462C37BD469C
:1051E800F0BD00BF1C000020E4EF000840F00008FC
:1051F80070F00008E8F000084806002090B58DB06F
:1052080002AFF860B9607A60002387F82730FA683F
:10521800BB6813443B623B6AFB610023BB6100230C
:10522800FB75614B1B68002B08D0FB695B889AB241
:105238005D4B9B889A4201D2012300E00023FB7555
:10524800FB7D002B0CD1FB695B889BB21946574844
:10525800FDF70AFF7B6802221A606FF001039FE0E6
:10526800514B1A68FB695B889BB219460B465B0079
:105278000B44DB001344BB61FB695B889BB2184697
:10528800FFF7B4FC0346002B0CBF01230023DBB25D
:10529800FB75FB7D002B0CD1FB695B889BB2194623
:1052A8004348FDF7E1FE7B6802221A606FF00703AE
:1052B80076E0FB699B889BB27F2B94BF0123002378
:1052C800DBB2FB75FB7D002B0CD1FB699B889BB285
:1052D80019463848FDF7C8FE7B6802221A606FF04D
:1052E80001035DE0FB69DB79002B0CBF0123002380
:1052F800DBB2FB75FB7D002B08D12F48FDF7B4FE10
:105308007B6802221A606FF0010349E0FB695B7851
:105318001846FFF732FD0346FB75FB7D002B0BD1CA
:10532800FB695B7819462548FDF79EFE7B680222DB
:105338001A606FF0090333E0FB695B889BB219467A
:10534800FB695B781846FB699B889BB21C46FB6926
:105358009B791A46FB69DB79019300922346024642
:105368001748FDF781FEFB695A78BB691A72FB6919
:105378009B889AB2BB69DA80FB699A79BB695A72D1
:10538800FB69DA79BB699A72BB695B7A012B02D82F
:10539800BB6901225A727B6801221A6097F927308B
:1053A80018462C37BD4690BD4806002058F1000825
:1053B80088F10008BCF10008ECF1000828F20008A8
:1053C8005CF2000890B58FB000AFF860B9607A6001
:1053D800002387F82630FA68BB6813443B623B6AAF
:1053E800FB610023BB61FB695B889BB27B61002387
:1053F80087F837300023FB748A4B1B68002B07D0D3
:10540800884B9B881A467B69934201DA012300E0A6
:10541800002387F8373097F83730002B09D179699E
:105428008148FDF721FE7B6802221A606FF00103B4
:10543800B2E17E4A7B6913607A4B19687A69134630
:105448005B001344DB000B44BB61FB695B781846C7
:10545800FFF7A6FC034687F8373097F83730002B5C
:105468000BD1FB695B7819467148FDF7FDFD7B6838
:1054780002221A606FF009038EE1FFF7C3FC0346AE
:10548800002B5AD0BB695B79002B56D1BB691B7ABC
:1054980003F00203002B21D0BB691B68002B09D045
:1054A800604BDB791A46BB691B791344802B01DCFE
:1054B800012300E0002387F8373097F83730002BB6
:1054C8002DD0584BDA79BB69DA72564BDA79BB6959
:1054D8001B791344DAB2534BDA7120E0BB691B68BD
:1054E800002B09D04F4B9B791A46BB691B79134493
:1054F800FC2B01DC012300E0002387F8373097F804
:105508003730002B0BD0474B9A79BB69DA72454B81
:105518009A79BB691B791344DAB2424B9A7197F8AE
:105528003730002B09D179694248FDF79DFD7B682A
:1055380002221A606FF008032EE1FB695B78012BE9
:1055480004D0FB695B78022B40F0908000233B631A
:10555800012387F8373000233B637CE00023FB629C
:105568000023BB620023FB6213E0BB6919683A6B36
:105578001346DB009B1A9B000B441A68FB6ADB008E
:1055880013445B781A46BB6A1344BB62FB6A013357
:10559800FB62BB6919683A6B1346DB009B1A9B00D8
:1055A8000B441B791A46FB6A9342DEDB3B6B002BEC
:1055B80017D1BB691B7A03F01003002B11D0BB690C
:1055C800DB891A46BB6A02FB03F35C1D02F0E8F9AB
:1055D80003469C4294BF01230023DBB287F837308F
:1055E80010E0BB69DB891A46BB6A02FB03F35C1C4B
:1055F80002F0D6F903469C4294BF01230023DBB294
:1056080087F8373097F83730002B17D13A6B79691C
:105618000948FDF729FD7B6802221A606FF008032C
:10562800BAE000BF48060020C0F2000818000020B9
:10563800F0F2000820F300085CF30008BB69196861
:105648003A6B1346DB009B1A9B000B44BA6A9A60BC
:105658003B6B01333B63BB691B791A463B6B934237
:1056680004DA97F83730002B7FF478AFBB69DB8812
:105678001846FFF74DFA0346FB74FB7C002B7DD0E0
:10568800002387F82730FB695B78022B53D0022B65
:105698005FDC002B02D0012B13D05AE07969404817
:1056A800FDF7E2FCBB6901225A71FFF7C7FA03460E
:1056B800002B4BD00120FEF7F9FB4020FEF726FC1B
:1056C80044E079693748FDF7CFFCBB695B69B3F102
:1056D800FF3F22D1BB69DA88334B1B889A420CD131
:1056E800314B5868304B9968BB6914331A4602F03D
:1056F80033FE034687F827300FE07B69002B0CDC6C
:10570800BB69DB88012B08D8B869FFF7E3FB0346C0
:1057180087F82730BB6900221A8297F92730002BB7
:1057280016D1BB6903225A710220FEF7BFFB402045
:10573800FEF7D8FB0CE0FB695B889BB219461B4857
:10574800FDF792FCBB6902225A7102E000BF00E03B
:1057580000BFBB69DB881846FFF700FA7B680222A6
:105768001A6097F92730002B08D01148FDF77CFC08
:105778007B6802221A606FF002030DE0FB7C002BAD
:1057880008D10C48FDF770FC7B6802221A606FF0A4
:105798000A0301E097F9263018463C37BD4690BD0C
:1057A800C0F30008ECF300082000002018F40008FB
:1057B80044F4000890F4000880B586B000AF0346B2
:1057C800B9607A60FB7397F90F30002B12D1BB6870
:1057D8007B617B69FF221A700C4B1A680C4B1B68A3
:1057E80019460B465B000B44DB001344DA7A7B69ED
:1057F8005A7006E097F90F307A68B9681846FEF7CC
:10580800B7FB00BF1837BD4680BD00BF4806002063
:105818001800002090B58BB000AFF860B9607A60CE
:105828000023FB77FA68BB681344BB61BB697B61E3
:105838000023FB740023BB7400237B627B695B78C5
:105848001846FFF7C6FA0346FB74FB7C002B0BD106
:105858007B695B781946A648FDF706FC7B6802223F
:105868001A606FF0090362E1A24B1B68002B05D098
:10587800A04B9B88002B01D0012300E00023FB7480
:10588800FB7C002B08D19C48FDF7EEFB7B680222CD
:105898001A606FF001034AE101F07AFA0346BB741B
:1058A800BB7C002B00F03581002387F823300023D0
:1058B8003B847B695B78022B00F0D580022B00F3D8
:1058C8000681002B02D0012B2CD000E100237B6243
:1058D8001BE0884B19687A6A13465B001344DB00A7
:1058E8000B445B79002B0DD0796A8448FDF7BCFB2B
:1058F800804B19687A6A13465B001344DB000B443B
:1059080001225A717B6A01337B627A4B9B881A4663
:105918007B6A9342DDDB0120FEF7C8FA4020FEF7E0
:10592800F5FAD4E000237B6263E0724B19687A6A67
:1059380013465B001344DB000B445B79022B55D103
:105948006C4B19687A6A13465B001344DB000B44FE
:105958005B69B3F1FF3F49D1664B19687A6A134610
:105968005B001344DB000B44DA88654B1B889A42C2
:1059780014D1634B5868624B9C685E4B19687A6A0D
:1059880013465B001344DB000B4414331A462146CC
:1059980002F0E2FC034687F8233027E07B6A002BFD
:1059A80024DC544B19687A6A13465B001344DB0005
:1059B8000B44DB88012B19D84E4B19687A6A1346B9
:1059C8005B001344DB000B441846FFF783FA0346D9
:1059D80087F82330474B19687A6A13465B001344EB
:1059E800DB000B4400221A827B6A3B847B6A01330A
:1059F8007B62404B9B881A467B6A934203DA97F98D
:105A08002330002B91D097F92330002B5CD1002351
:105A18007B6221E0374B19687A6A13465B001344AE
:105A2800DB000B445B79022B13D1796A3548FDF70B
:105A38001BFB304B19687A6A13465B001344DB0082
:105A48000B4403225A710220FEF730FA4020FEF779
:105A580049FA7B6A01337B62264B9B881A467B6A2C
:105A68009342D7DB30E000237B621BE0214B1968AF
:105A78007A6A13465B001344DB000B445B79022B04
:105A88000DD1796A1D48FDF7EFFA1A4B19687A6A41
:105A980013465B001344DB000B4401225A717B6AF6
:105AA80001337B62134B9B881A467B6A9342DDDB8A
:105AB800FFF7C4F80346002B08D00120FEF7F6F9DB
:105AC8004020FEF723FA01E000BF00E000BF01F02C
